{
  "contractName": "ProxyRegistry",
  "abi": [
    {
      "inputs": [
        {
          "internalType": "address",
          "name": "",
          "type": "address"
        }
      ],
      "name": "proxies",
      "outputs": [
        {
          "internalType": "contract OwnableDelegateProxy",
          "name": "",
          "type": "address"
        }
      ],
      "stateMutability": "view",
      "type": "function"
    }
  ],
  "bytecode": "0x608060405234801561001057600080fd5b50610117806100206000396000f3fe6080604052348015600f57600080fd5b506004361060285760003560e01c8063c455279114602d575b600080fd5b606c60048036036020811015604157600080fd5b81019080803573ffffffffffffffffffffffffffffffffffffffff16906020019092919050505060ae565b604051808273ffffffffffffffffffffffffffffffffffffffff1673ffffffffffffffffffffffffffffffffffffffff16815260200191505060405180910390f35b60006020528060005260406000206000915054906101000a900473ffffffffffffffffffffffffffffffffffffffff168156fea264697066735822122040924c732a69a06d005cb157b05c7ca173561363708ef1c5453927c77533b99764736f6c63430006090033",
  "immutableReferences": {},
  "source": "// SPDX-License-Identifier: MIT\r\n\r\npragma solidity ^0.6.0;\r\n\r\nimport '../node_modules/@openzeppelin/contracts/token/ERC721/ERC721.sol';\r\n\r\n\r\n//proxy stuff from Dhruvin's opensea github added before deployment for first time\r\ncontract OwnableDelegateProxy { }\r\n\r\ncontract ProxyRegistry {\r\n    mapping(address => OwnableDelegateProxy) public proxies;\r\n}\r\n\r\nabstract contract SeedBazaar is ERC721 {\r\n\r\n    address bazaarOwner;\r\n    address proxyRegistryAddress;\r\n\r\n    //constructor\r\n    constructor(address _proxyRegistryAddress) public {\r\n        bazaarOwner = msg.sender;\r\n        proxyRegistryAddress = _proxyRegistryAddress;\r\n    }\r\n\r\n    modifier _ownerOnly(){\r\n            require(msg.sender == bazaarOwner, \"Only the bazaar owner can conduct this action\");\r\n            _;\r\n        }\r\n\r\n   //struct for seeds\r\n   struct Seed{\r\n       string name;\r\n       string description;\r\n       uint quantity;\r\n   }\r\n   \r\n   Seed[] public seeds;\r\n\r\n    //mint function to register seed to a specific address\r\n    function registerSeed(address to, string memory _name, string memory _description, uint _quantity) internal _ownerOnly {\r\n        require(to != address(0), \"No recipient address specified\");\r\n        uint id = seeds.length;\r\n        seeds.push(Seed(_name, _description, _quantity));\r\n        _mint(to, id);\r\n    }\r\n    //sell seed \r\n    function sellSeed(address receiver, uint id) public _ownerOnly returns (bool) {\r\n        _transfer(msg.sender, receiver, id);\r\n        return true;\r\n    }   \r\n\r\n    //allow a vendor to sell a specific seed\r\n    function registerVendorForSeed(address vendor, uint id) internal _ownerOnly {\r\n        approve(vendor, id);\r\n    }\r\n\r\n    //added this from Dhruvin's github with override keyword for first time deployment\r\n    function isApprovedForAll(address owner, address operator) public view override returns (bool) {\r\n    // Whitelist OpenSea proxy contract for easy trading.\r\n        ProxyRegistry proxyRegistry = ProxyRegistry(proxyRegistryAddress);\r\n        if (address(proxyRegistry.proxies(owner)) == operator) {\r\n            return true;\r\n        }\r\n        return super.isApprovedForAll(owner, operator);\r\n    }\r\n\r\n    //check how many seeds are at an accout\r\n    function seedBalance(address account) public view returns (uint) {\r\n        return balanceOf(account);\r\n    }\r\n\r\n    //check who owns a certain seed\r\n    function seedOwner(uint id) public view returns (address) {\r\n        ownerOf(id);\r\n    }\r\n}",
  "sourcePath": "C:\\Users\\Shaf\\Desktop\\seedbazaar\\contracts\\seedBazaar.sol",
  "compiler": {
    "name": "solc",
    "version": "0.6.9+commit.3e3065ac.Emscripten.clang"
  },
  "schemaVersion": "3.2.0",
  "updatedAt": "2020-06-08T16:00:51.310Z",
  "devdoc": {
    "methods": {}
  },
  "userdoc": {
    "methods": {}
  }
}